{
  "contractName": "PharmaChain",
  "abi": [
    {
      "anonymous": false,
      "inputs": [
        {
          "indexed": true,
          "internalType": "uint256",
          "name": "_drugID",
          "type": "uint256"
        },
        {
          "indexed": false,
          "internalType": "string",
          "name": "_stage",
          "type": "string"
        }
      ],
      "name": "LogDrugStageUpdate",
      "type": "event"
    },
    {
      "inputs": [],
      "name": "drugCounter",
      "outputs": [
        {
          "internalType": "uint256",
          "name": "",
          "type": "uint256"
        }
      ],
      "stateMutability": "view",
      "type": "function",
      "constant": true
    },
    {
      "inputs": [
        {
          "internalType": "uint256",
          "name": "",
          "type": "uint256"
        }
      ],
      "name": "drugs",
      "outputs": [
        {
          "internalType": "uint256",
          "name": "drugID",
          "type": "uint256"
        },
        {
          "internalType": "string",
          "name": "name",
          "type": "string"
        },
        {
          "internalType": "address",
          "name": "manufacturer",
          "type": "address"
        },
        {
          "internalType": "address",
          "name": "owner",
          "type": "address"
        },
        {
          "internalType": "string",
          "name": "stage",
          "type": "string"
        },
        {
          "internalType": "string",
          "name": "history",
          "type": "string"
        }
      ],
      "stateMutability": "view",
      "type": "function",
      "constant": true
    },
    {
      "inputs": [
        {
          "internalType": "string",
          "name": "_name",
          "type": "string"
        }
      ],
      "name": "addDrug",
      "outputs": [],
      "stateMutability": "nonpayable",
      "type": "function"
    },
    {
      "inputs": [
        {
          "internalType": "uint256",
          "name": "_drugID",
          "type": "uint256"
        },
        {
          "internalType": "address",
          "name": "_newOwner",
          "type": "address"
        },
        {
          "internalType": "string",
          "name": "_newStage",
          "type": "string"
        }
      ],
      "name": "updateDrugStage",
      "outputs": [],
      "stateMutability": "nonpayable",
      "type": "function"
    },
    {
      "inputs": [
        {
          "internalType": "uint256",
          "name": "_drugID",
          "type": "uint256"
        }
      ],
      "name": "getDrugDetails",
      "outputs": [
        {
          "internalType": "uint256",
          "name": "",
          "type": "uint256"
        },
        {
          "internalType": "string",
          "name": "",
          "type": "string"
        },
        {
          "internalType": "address",
          "name": "",
          "type": "address"
        },
        {
          "internalType": "address",
          "name": "",
          "type": "address"
        },
        {
          "internalType": "string",
          "name": "",
          "type": "string"
        },
        {
          "internalType": "string",
          "name": "",
          "type": "string"
        }
      ],
      "stateMutability": "view",
      "type": "function",
      "constant": true
    }
  ],
  "bytecode": "0x608060405234801561001057600080fd5b50611427806100206000396000f3fe608060405234801561001057600080fd5b50600436106100575760003560e01c8063223883de1461005c57806360ee0b6d14610078578063641db207146100ad5780636e6b50fd146100cb578063fca5e61e146100e7575b600080fd5b61007660048036038101906100719190610b2f565b61011c565b005b610092600480360381019061008d9190610bae565b610325565b6040516100a496959493929190610caa565b60405180910390f35b6100b56105b2565b6040516100c29190610d20565b60405180910390f35b6100e560048036038101906100e09190610d67565b6105b8565b005b61010160048036038101906100fc9190610bae565b6107c1565b60405161011396959493929190610caa565b60405180910390f35b6001600081548092919061012f90610e05565b91905055506040518060c0016040528060015481526020018281526020013373ffffffffffffffffffffffffffffffffffffffff1681526020013373ffffffffffffffffffffffffffffffffffffffff1681526020016040518060400160405280600c81526020017f4d616e756661637475726564000000000000000000000000000000000000000081525081526020016040518060400160405280601681526020017f4472756720776173206d616e7566616374757265642e00000000000000000000815250815250600080600154815260200190815260200160002060008201518160000155602082015181600101908161022c9190611059565b5060408201518160020160006101000a81548173ffffffffffffffffffffffffffffffffffffffff021916908373ffffffffffffffffffffffffffffffffffffffff16021790555060608201518160030160006101000a81548173ffffffffffffffffffffffffffffffffffffffff021916908373ffffffffffffffffffffffffffffffffffffffff16021790555060808201518160040190816102d09190611059565b5060a08201518160050190816102e69190611059565b509050506001547f446a9948a5c8e88b2b47c3a883f238529e5b84ac6795020adab3d78cab12e16e60405161031a90611177565b60405180910390a250565b6000606060008060608060008060008981526020019081526020016000206000015403610387576040517f08c379a000000000000000000000000000000000000000000000000000000000815260040161037e906111e3565b60405180910390fd5b600080600089815260200190815260200160002090508060000154816001018260020160009054906101000a900473ffffffffffffffffffffffffffffffffffffffff168360030160009054906101000a900473ffffffffffffffffffffffffffffffffffffffff16846004018560050184805461040490610e7c565b80601f016020809104026020016040519081016040528092919081815260200182805461043090610e7c565b801561047d5780601f106104525761010080835404028352916020019161047d565b820191906000526020600020905b81548152906001019060200180831161046057829003601f168201915b5050505050945081805461049090610e7c565b80601f01602080910402602001604051908101604052809291908181526020018280546104bc90610e7c565b80156105095780601f106104de57610100808354040283529160200191610509565b820191906000526020600020905b8154815290600101906020018083116104ec57829003601f168201915b5050505050915080805461051c90610e7c565b80601f016020809104026020016040519081016040528092919081815260200182805461054890610e7c565b80156105955780601f1061056a57610100808354040283529160200191610595565b820191906000526020600020905b81548152906001019060200180831161057857829003601f168201915b505050505090509650965096509650965096505091939550919395565b60015481565b8260008060008381526020019081526020016000206000015403610611576040517f08c379a0000000000000000000000000000000000000000000000000000000008152600401610608906111e3565b60405180910390fd5b60008082815260200190815260200160002060030160009054906101000a900473ffffffffffffffffffffffffffffffffffffffff1673ffffffffffffffffffffffffffffffffffffffff163373ffffffffffffffffffffffffffffffffffffffff16146106b4576040517f08c379a00000000000000000000000000000000000000000000000000000000081526004016106ab90611275565b60405180910390fd5b8260008086815260200190815260200160002060030160006101000a81548173ffffffffffffffffffffffffffffffffffffffff021916908373ffffffffffffffffffffffffffffffffffffffff16021790555081600080868152602001908152602001600020600401908161072a9190611059565b50600080858152602001908152602001600020600501826040516020016107529291906113a0565b60405160208183030381529060405260008086815260200190815260200160002060050190816107829190611059565b50837f446a9948a5c8e88b2b47c3a883f238529e5b84ac6795020adab3d78cab12e16e836040516107b391906113cf565b60405180910390a250505050565b60006020528060005260406000206000915090508060000154908060010180546107ea90610e7c565b80601f016020809104026020016040519081016040528092919081815260200182805461081690610e7c565b80156108635780601f1061083857610100808354040283529160200191610863565b820191906000526020600020905b81548152906001019060200180831161084657829003601f168201915b5050505050908060020160009054906101000a900473ffffffffffffffffffffffffffffffffffffffff16908060030160009054906101000a900473ffffffffffffffffffffffffffffffffffffffff16908060040180546108c490610e7c565b80601f01602080910402602001604051908101604052809291908181526020018280546108f090610e7c565b801561093d5780601f106109125761010080835404028352916020019161093d565b820191906000526020600020905b81548152906001019060200180831161092057829003601f168201915b50505050509080600501805461095290610e7c565b80601f016020809104026020016040519081016040528092919081815260200182805461097e90610e7c565b80156109cb5780601f106109a0576101008083540402835291602001916109cb565b820191906000526020600020905b8154815290600101906020018083116109ae57829003601f168201915b5050505050905086565b6000604051905090565b600080fd5b600080fd5b600080fd5b600080fd5b6000601f19601f8301169050919050565b7f4e487b7100000000000000000000000000000000000000000000000000000000600052604160045260246000fd5b610a3c826109f3565b810181811067ffffffffffffffff82111715610a5b57610a5a610a04565b5b80604052505050565b6000610a6e6109d5565b9050610a7a8282610a33565b919050565b600067ffffffffffffffff821115610a9a57610a99610a04565b5b610aa3826109f3565b9050602081019050919050565b82818337600083830152505050565b6000610ad2610acd84610a7f565b610a64565b905082815260208101848484011115610aee57610aed6109ee565b5b610af9848285610ab0565b509392505050565b600082601f830112610b1657610b156109e9565b5b8135610b26848260208601610abf565b91505092915050565b600060208284031215610b4557610b446109df565b5b600082013567ffffffffffffffff811115610b6357610b626109e4565b5b610b6f84828501610b01565b91505092915050565b6000819050919050565b610b8b81610b78565b8114610b9657600080fd5b50565b600081359050610ba881610b82565b92915050565b600060208284031215610bc457610bc36109df565b5b6000610bd284828501610b99565b91505092915050565b610be481610b78565b82525050565b600081519050919050565b600082825260208201905092915050565b60005b83811015610c24578082015181840152602081019050610c09565b60008484015250505050565b6000610c3b82610bea565b610c458185610bf5565b9350610c55818560208601610c06565b610c5e816109f3565b840191505092915050565b600073ffffffffffffffffffffffffffffffffffffffff82169050919050565b6000610c9482610c69565b9050919050565b610ca481610c89565b82525050565b600060c082019050610cbf6000830189610bdb565b8181036020830152610cd18188610c30565b9050610ce06040830187610c9b565b610ced6060830186610c9b565b8181036080830152610cff8185610c30565b905081810360a0830152610d138184610c30565b9050979650505050505050565b6000602082019050610d356000830184610bdb565b92915050565b610d4481610c89565b8114610d4f57600080fd5b50565b600081359050610d6181610d3b565b92915050565b600080600060608486031215610d8057610d7f6109df565b5b6000610d8e86828701610b99565b9350506020610d9f86828701610d52565b925050604084013567ffffffffffffffff811115610dc057610dbf6109e4565b5b610dcc86828701610b01565b9150509250925092565b7f4e487b7100000000000000000000000000000000000000000000000000000000600052601160045260246000fd5b6000610e1082610b78565b91507fffffffffffffffffffffffffffffffffffffffffffffffffffffffffffffffff8203610e4257610e41610dd6565b5b600182019050919050565b7f4e487b7100000000000000000000000000000000000000000000000000000000600052602260045260246000fd5b60006002820490506001821680610e9457607f821691505b602082108103610ea757610ea6610e4d565b5b50919050565b60008190508160005260206000209050919050565b60006020601f8301049050919050565b600082821b905092915050565b600060088302610f0f7fffffffffffffffffffffffffffffffffffffffffffffffffffffffffffffffff82610ed2565b610f198683610ed2565b95508019841693508086168417925050509392505050565b6000819050919050565b6000610f56610f51610f4c84610b78565b610f31565b610b78565b9050919050565b6000819050919050565b610f7083610f3b565b610f84610f7c82610f5d565b848454610edf565b825550505050565b600090565b610f99610f8c565b610fa4818484610f67565b505050565b5b81811015610fc857610fbd600082610f91565b600181019050610faa565b5050565b601f82111561100d57610fde81610ead565b610fe784610ec2565b81016020851015610ff6578190505b61100a61100285610ec2565b830182610fa9565b50505b505050565b600082821c905092915050565b600061103060001984600802611012565b1980831691505092915050565b6000611049838361101f565b9150826002028217905092915050565b61106282610bea565b67ffffffffffffffff81111561107b5761107a610a04565b5b6110858254610e7c565b611090828285610fcc565b600060209050601f8311600181146110c357600084156110b1578287015190505b6110bb858261103d565b865550611123565b601f1984166110d186610ead565b60005b828110156110f9578489015182556001820191506020850194506020810190506110d4565b868310156111165784890151611112601f89168261101f565b8355505b6001600288020188555050505b505050505050565b7f4d616e7566616374757265640000000000000000000000000000000000000000600082015250565b6000611161600c83610bf5565b915061116c8261112b565b602082019050919050565b6000602082019050818103600083015261119081611154565b9050919050565b7f4472756720646f6573206e6f742065786973742e000000000000000000000000600082015250565b60006111cd601483610bf5565b91506111d882611197565b602082019050919050565b600060208201905081810360008301526111fc816111c0565b9050919050565b7f596f7520617265206e6f7420746865206f776e6572206f66207468697320647260008201527f75672e0000000000000000000000000000000000000000000000000000000000602082015250565b600061125f602383610bf5565b915061126a82611203565b604082019050919050565b6000602082019050818103600083015261128e81611252565b9050919050565b600081905092915050565b600081546112ad81610e7c565b6112b78186611295565b945060018216600081146112d257600181146112e75761131a565b60ff198316865281151582028601935061131a565b6112f085610ead565b60005b83811015611312578154818901526001820191506020810190506112f3565b838801955050505b50505092915050565b7f202d3e2000000000000000000000000000000000000000000000000000000000600082015250565b6000611359600483611295565b915061136482611323565b600482019050919050565b600061137a82610bea565b6113848185611295565b9350611394818560208601610c06565b80840191505092915050565b60006113ac82856112a0565b91506113b78261134c565b91506113c3828461136f565b91508190509392505050565b600060208201905081810360008301526113e98184610c30565b90509291505056fea26469706673582212201db85dde6ca2385490a209f4940a3dd83e8846bfeefb575ad69d017db47d7f8b64736f6c63430008130033",
  "immutableReferences": {},
  "source": "// SPDX-License-Identifier: MIT\r\npragma solidity ^0.8.19;\r\n\r\n/**\r\n * @title PharmaChain\r\n * @dev A smart contract to track a drug's journey through the supply chain.\r\n */\r\ncontract PharmaChain {\r\n\r\n    // Structure to hold all details about a drug\r\n    struct Drug {\r\n        uint drugID;\r\n        string name;\r\n        address manufacturer;\r\n        address owner; // Current owner of the drug\r\n        string stage; // e.g., \"Manufactured\", \"Shipped\", \"Sold\"\r\n        string history; // A simple log of the drug's journey\r\n    }\r\n\r\n    // A mapping to store drugs using their ID\r\n    // We make this public so Truffle can create a free 'getter' function\r\n    mapping(uint => Drug) public drugs;\r\n    \r\n    // A counter to ensure each drug gets a unique ID\r\n    uint public drugCounter;\r\n\r\n    // Event to notify the frontend when a drug stage is updated\r\n    event LogDrugStageUpdate(uint indexed _drugID, string _stage);\r\n\r\n    // Modifier to restrict access to certain functions\r\n    // Only the current owner of a specific drug can call a function\r\n    modifier only_owner(uint _drugID) {\r\n        // Check if the drug exists before checking owner\r\n        require(drugs[_drugID].drugID != 0, \"Drug does not exist.\");\r\n        // Check if the caller is the owner\r\n        require(msg.sender == drugs[_drugID].owner, \"You are not the owner of this drug.\");\r\n        _; // This means \"run the rest of the function\"\r\n    }\r\n\r\n    /**\r\n     * @dev Function for the manufacturer to create a new drug entry.\r\n     * @param _name The name of the drug (e.g., \"Aspirin 500mg\").\r\n     */\r\n    function addDrug(string memory _name) public {\r\n        drugCounter++;\r\n        \r\n        // Save the new drug to the blockchain\r\n        drugs[drugCounter] = Drug(\r\n            drugCounter,\r\n            _name,\r\n            msg.sender, // The address of the account calling this function\r\n            msg.sender, // Manufacturer is the first owner\r\n            \"Manufactured\",\r\n            \"Drug was manufactured.\"\r\n        );\r\n        \r\n        // Emit an event to notify the frontend\r\n        emit LogDrugStageUpdate(drugCounter, \"Manufactured\");\r\n    }\r\n\r\n    /**\r\n     * @dev Function to update the drug stage and transfer ownership.\r\n     * This function uses the 'only_owner' modifier to ensure security.\r\n     * @param _drugID The ID of the drug to update.\r\n     * @param _newOwner The address of the new owner (e.g., distributor or pharmacist).\r\n     * @param _newStage A string describing the new stage (e.g., \"ShippedToDistributor\").\r\n     */\r\n    function updateDrugStage(uint _drugID, address _newOwner, string memory _newStage) public only_owner(_drugID) {\r\n        drugs[_drugID].owner = _newOwner;\r\n        drugs[_drugID].stage = _newStage;\r\n        \r\n        // Append the new stage to the history string\r\n        drugs[_drugID].history = string(abi.encodePacked(drugs[_drugID].history, \" -> \", _newStage));\r\n        \r\n        // Emit an event for the frontend\r\n        emit LogDrugStageUpdate(_drugID, _newStage);\r\n    }\r\n\r\n    /**\r\n     * @dev Public function to get all details of a drug.\r\n     * 'view' means it's read-only and doesn't cost any gas to call.\r\n     * @param _drugID The ID of the drug to check.\r\n     * @return All 6 fields of the Drug struct.\r\n     */\r\n    function getDrugDetails(uint _drugID) public view returns (\r\n        uint, \r\n        string memory, \r\n        address, \r\n        address, \r\n        string memory, \r\n        string memory\r\n    ) {\r\n        // Check that the drug exists\r\n        require(drugs[_drugID].drugID != 0, \"Drug does not exist.\");\r\n        \r\n        Drug storage drug = drugs[_drugID];\r\n        \r\n        return (\r\n            drug.drugID,\r\n            drug.name,\r\n            drug.manufacturer,\r\n            drug.owner,\r\n            drug.stage,\r\n            drug.history\r\n        );\r\n    }\r\n}\r\n\r\n",
  "sourcePath": "C:\\Users\\velis_5e7qzxs\\pharma-chain\\contracts\\PharmaChain.sol",
  "compiler": {
    "name": "solc",
    "version": "0.8.19+commit.7dd6d404.Emscripten.clang"
  },
  "schemaVersion": "3.4.16",
  "updatedAt": "2025-10-28T15:47:33.901Z",
  "networkType": "ethereum",
  "devdoc": {
    "details": "A smart contract to track a drug's journey through the supply chain.",
    "kind": "dev",
    "methods": {
      "addDrug(string)": {
        "details": "Function for the manufacturer to create a new drug entry.",
        "params": {
          "_name": "The name of the drug (e.g., \"Aspirin 500mg\")."
        }
      },
      "getDrugDetails(uint256)": {
        "details": "Public function to get all details of a drug. 'view' means it's read-only and doesn't cost any gas to call.",
        "params": {
          "_drugID": "The ID of the drug to check."
        },
        "returns": {
          "_0": "All 6 fields of the Drug struct."
        }
      },
      "updateDrugStage(uint256,address,string)": {
        "details": "Function to update the drug stage and transfer ownership. This function uses the 'only_owner' modifier to ensure security.",
        "params": {
          "_drugID": "The ID of the drug to update.",
          "_newOwner": "The address of the new owner (e.g., distributor or pharmacist).",
          "_newStage": "A string describing the new stage (e.g., \"ShippedToDistributor\")."
        }
      }
    },
    "title": "PharmaChain",
    "version": 1
  },
  "userdoc": {
    "kind": "user",
    "methods": {},
    "version": 1
  }
}